{
  "contractName": "Ballot",
  "abi": [
    {
      "constant": true,
      "inputs": [
        {
          "name": "",
          "type": "uint256"
        }
      ],
      "name": "candidates",
      "outputs": [
        {
          "name": "name",
          "type": "bytes32"
        },
        {
          "name": "voteCount",
          "type": "uint256"
        },
        {
          "name": "party",
          "type": "bytes32"
        }
      ],
      "payable": false,
      "stateMutability": "view",
      "type": "function"
    },
    {
      "constant": true,
      "inputs": [
        {
          "name": "",
          "type": "address"
        }
      ],
      "name": "voters",
      "outputs": [
        {
          "name": "weight",
          "type": "uint256"
        },
        {
          "name": "voted",
          "type": "bool"
        },
        {
          "name": "voterid",
          "type": "address"
        },
        {
          "name": "vote",
          "type": "uint256"
        }
      ],
      "payable": false,
      "stateMutability": "view",
      "type": "function"
    },
    {
      "constant": true,
      "inputs": [],
      "name": "admin",
      "outputs": [
        {
          "name": "",
          "type": "address"
        }
      ],
      "payable": false,
      "stateMutability": "view",
      "type": "function"
    },
    {
      "inputs": [
        {
          "name": "candidateNames",
          "type": "bytes32[]"
        },
        {
          "name": "partyName",
          "type": "bytes32[]"
        }
      ],
      "payable": false,
      "stateMutability": "nonpayable",
      "type": "constructor"
    },
    {
      "constant": false,
      "inputs": [
        {
          "name": "voter",
          "type": "address"
        }
      ],
      "name": "giveRightToVote",
      "outputs": [],
      "payable": false,
      "stateMutability": "nonpayable",
      "type": "function"
    },
    {
      "constant": true,
      "inputs": [
        {
          "name": "candidate",
          "type": "uint256"
        }
      ],
      "name": "validCandidate",
      "outputs": [
        {
          "name": "",
          "type": "bool"
        }
      ],
      "payable": false,
      "stateMutability": "view",
      "type": "function"
    },
    {
      "constant": false,
      "inputs": [
        {
          "name": "candidate",
          "type": "uint256"
        }
      ],
      "name": "vote",
      "outputs": [],
      "payable": false,
      "stateMutability": "nonpayable",
      "type": "function"
    },
    {
      "constant": true,
      "inputs": [],
      "name": "winningCandidate",
      "outputs": [
        {
          "name": "winningCandidate_",
          "type": "uint256"
        }
      ],
      "payable": false,
      "stateMutability": "view",
      "type": "function"
    },
    {
      "constant": true,
      "inputs": [],
      "name": "winnerName",
      "outputs": [
        {
          "name": "winnerName_",
          "type": "bytes32"
        }
      ],
      "payable": false,
      "stateMutability": "view",
      "type": "function"
    },
    {
      "constant": true,
      "inputs": [],
      "name": "winningParty",
      "outputs": [
        {
          "name": "winParty_",
          "type": "bytes32"
        }
      ],
      "payable": false,
      "stateMutability": "view",
      "type": "function"
    },
    {
      "constant": true,
      "inputs": [
        {
          "name": "voter",
          "type": "uint256"
        }
      ],
      "name": "totalVotesFor",
      "outputs": [
        {
          "name": "",
          "type": "uint256"
        }
      ],
      "payable": false,
      "stateMutability": "view",
      "type": "function"
    }
  ],
  "bytecode": "0x608060405234801561001057600080fd5b50604051610b29380380610b298339810180604052604081101561003357600080fd5b81019080805164010000000081111561004b57600080fd5b8281019050602081018481111561006157600080fd5b815185602082028301116401000000008211171561007e57600080fd5b5050929190602001805164010000000081111561009a57600080fd5b828101905060208101848111156100b057600080fd5b81518560208202830111640100000000821117156100cd57600080fd5b5050929190505050336000806101000a81548173ffffffffffffffffffffffffffffffffffffffff021916908373ffffffffffffffffffffffffffffffffffffffff16021790555060018060008060009054906101000a900473ffffffffffffffffffffffffffffffffffffffff1673ffffffffffffffffffffffffffffffffffffffff1673ffffffffffffffffffffffffffffffffffffffff1681526020019081526020016000206000018190555060008090505b825181101561022957600260405180606001604052808584815181106101a557fe5b60200260200101518152602001600081526020018484815181106101c557fe5b6020026020010151815250908060018154018082558091505090600182039060005260206000209060030201600090919290919091506000820151816000015560208201518160010155604082015181600201555050508080600101915050610183565b5050506108ee8061023b6000396000f3fe608060405234801561001057600080fd5b506004361061009e5760003560e01c8063a805f1ca11610066578063a805f1ca14610248578063ae315fe41461028a578063d28178d7146102a8578063e2ba53f0146102c6578063f851a440146102e45761009e565b80630121b93f146100a357806321b4bdde146100d15780633477ee2e146101175780639e7b8d6114610167578063a3ec138d146101ab575b600080fd5b6100cf600480360360208110156100b957600080fd5b810190808035906020019092919050505061032e565b005b6100fd600480360360208110156100e757600080fd5b81019080803590602001909291905050506104cb565b604051808215151515815260200191505060405180910390f35b6101436004803603602081101561012d57600080fd5b81019080803590602001909291905050506104ed565b60405180848152602001838152602001828152602001935050505060405180910390f35b6101a96004803603602081101561017d57600080fd5b81019080803573ffffffffffffffffffffffffffffffffffffffff169060200190929190505050610524565b005b6101ed600480360360208110156101c157600080fd5b81019080803573ffffffffffffffffffffffffffffffffffffffff169060200190929190505050610725565b60405180858152602001841515151581526020018373ffffffffffffffffffffffffffffffffffffffff1673ffffffffffffffffffffffffffffffffffffffff16815260200182815260200194505050505060405180910390f35b6102746004803603602081101561025e57600080fd5b8101908080359060200190929190505050610782565b6040518082815260200191505060405180910390f35b6102926107aa565b6040518082815260200191505060405180910390f35b6102b06107d7565b6040518082815260200191505060405180910390f35b6102ce61084e565b6040518082815260200191505060405180910390f35b6102ec61087b565b604051808273ffffffffffffffffffffffffffffffffffffffff1673ffffffffffffffffffffffffffffffffffffffff16815260200191505060405180910390f35b6000600160003373ffffffffffffffffffffffffffffffffffffffff1673ffffffffffffffffffffffffffffffffffffffff16815260200190815260200160002090506000816000015414156103ec576040517f08c379a00000000000000000000000000000000000000000000000000000000081526004018080602001828103825260148152602001807f486173206e6f20726967687420746f20766f746500000000000000000000000081525060200191505060405180910390fd5b8060010160009054906101000a900460ff1615610471576040517f08c379a000000000000000000000000000000000000000000000000000000000815260040180806020018281038252600e8152602001807f416c726561647920766f7465642e00000000000000000000000000000000000081525060200191505060405180910390fd5b60018160010160006101000a81548160ff0219169083151502179055508181600201819055508060000154600283815481106104a957fe5b9060005260206000209060030201600101600082825401925050819055505050565b60006002805490508210156104e357600190506104e8565b600090505b919050565b600281815481106104fa57fe5b90600052602060002090600302016000915090508060000154908060010154908060020154905083565b6000809054906101000a900473ffffffffffffffffffffffffffffffffffffffff1673ffffffffffffffffffffffffffffffffffffffff163373ffffffffffffffffffffffffffffffffffffffff16146105c9576040517f08c379a00000000000000000000000000000000000000000000000000000000081526004018080602001828103825260228152602001806108a16022913960400191505060405180910390fd5b600160008273ffffffffffffffffffffffffffffffffffffffff1673ffffffffffffffffffffffffffffffffffffffff16815260200190815260200160002060010160009054906101000a900460ff161561068c576040517f08c379a00000000000000000000000000000000000000000000000000000000081526004018080602001828103825260188152602001807f54686520766f74657220616c726561647920766f7465642e000000000000000081525060200191505060405180910390fd5b6000600160008373ffffffffffffffffffffffffffffffffffffffff1673ffffffffffffffffffffffffffffffffffffffff16815260200190815260200160002060000154146106db57600080fd5b60018060008373ffffffffffffffffffffffffffffffffffffffff1673ffffffffffffffffffffffffffffffffffffffff1681526020019081526020016000206000018190555050565b60016020528060005260406000206000915090508060000154908060010160009054906101000a900460ff16908060010160019054906101000a900473ffffffffffffffffffffffffffffffffffffffff16908060020154905084565b60006002828154811061079157fe5b9060005260206000209060030201600101549050919050565b600060026107b66107d7565b815481106107c057fe5b906000526020600020906003020160020154905090565b6000806000905060008090505b6002805490508110156108495781600282815481106107ff57fe5b906000526020600020906003020160010154111561083c576002818154811061082457fe5b90600052602060002090600302016001015491508092505b80806001019150506107e4565b505090565b6000600261085a6107d7565b8154811061086457fe5b906000526020600020906003020160000154905090565b6000809054906101000a900473ffffffffffffffffffffffffffffffffffffffff168156fe4f6e6c792061646d696e2063616e206769766520726967687420746f20766f74652ea165627a7a72305820bb1679a44dddaf37f7c8c959a2a56c83bcb662ac080e44f552b746859c417b7f0029",
  "source": "pragma solidity >=0.4.22 <0.6.0;\n\n/// @title Voting with delegation.\ncontract Ballot {\n    // This declares a new complex type which will\n    // be used for variables later.\n    // It will represent a single voter.\n    struct Voter {\n        uint weight; // weight is accumulated by delegation\n        bool voted;  // if true, that person already voted\n        address voterid; // person delegated to\n        uint vote;   // index of the voted Candidate\n    }\n\n    // This is a type for a single Candidate.\n    struct Candidate {\n        bytes32 name;   // short name (up to 32 bytes)\n        uint voteCount; // number of accumulated votes\n        bytes32 party;\n    }\n\n    address public admin;\n// mapping voterID to voter\n    mapping(address => Voter) public voters;\n\n    // A dynamically-sized array of `Candidate` structs.\n    Candidate[] public candidates;\n\n    /// Create a new ballot to choose one of `CandidateNames`.\n    constructor(bytes32[] memory candidateNames,bytes32[] memory partyName) public {\n        admin = msg.sender;\n        voters[admin].weight = 1;\n\n        for (uint i = 0; i < candidateNames.length; i++) {\n            candidates.push(Candidate({\n                name: candidateNames[i],\n                voteCount: 0,\n                party: partyName[i]\n            }));\n        }\n    }\n\n//Pass in voter ID\n    function giveRightToVote(address voter) public {\n \n        require(\n            msg.sender == admin,\n            \"Only admin can give right to vote.\"\n        );\n        require(\n            !voters[voter].voted,\n            \"The voter already voted.\"\n        );\n        require(voters[voter].weight == 0);\n        voters[voter].weight = 1;\n    }\n    \n      function validCandidate(uint candidate) view public returns (bool) {\n    \n\t    if(candidate<candidates.length)\n\t    {\n\t    \treturn true;\n\t    }\n\t    return false;\n\t}\n\t\n//cast your vote for candidate with id 'candidate'\n    function vote(uint candidate) public {\n        Voter storage sender = voters[msg.sender];\n        require(sender.weight != 0, \"Has no right to vote\");\n        require(!sender.voted, \"Already voted.\");\n        sender.voted = true;\n        sender.vote = candidate;\n        // If `Candidate` is out of the range of the array,this will throw automatically and revert all changes.\n        candidates[candidate].voteCount += sender.weight;\n    }\n\n    function winningCandidate() public view\n            returns (uint winningCandidate_)\n    {\n        uint winningVoteCount = 0;\n        for (uint p = 0; p < candidates.length; p++) {\n            if (candidates[p].voteCount > winningVoteCount) {\n                winningVoteCount = candidates[p].voteCount;\n                winningCandidate_ = p;\n        }\n       }\n    }\n\n    function winnerName() public view\n            returns (bytes32 winnerName_)\n    {\n        winnerName_ = candidates[winningCandidate()].name;\n    }\n    function winningParty() public view\n            returns (bytes32 winParty_)\n    {\n        winParty_ = candidates[winningCandidate()].party;\n    }\n    function totalVotesFor(uint voter) public view returns(uint) {\n   \t return  candidates[voter].voteCount;\n  }\n}\n",
  "sourcePath": "/home/ighosh/Desktop/Github/Team_450/contracts/Ballot.sol",
  "compiler": {
    "name": "solc",
    "version": "0.5.8+commit.23d335f2.Emscripten.clang"
  },
  "schemaVersion": "3.0.11",
  "updatedAt": "2019-08-17T14:28:57.583Z",
  "devdoc": {
    "methods": {},
    "title": "Voting with delegation."
  },
  "userdoc": {
    "methods": {
      "constructor": "Create a new ballot to choose one of `CandidateNames`."
    }
  }
}