{
  "contractName": "Ballot",
  "abi": [
    {
      "constant": true,
      "inputs": [
        {
          "name": "",
          "type": "uint256"
        }
      ],
      "name": "candidates",
      "outputs": [
        {
          "name": "name",
          "type": "bytes32"
        },
        {
          "name": "voteCount",
          "type": "uint256"
        }
      ],
      "payable": false,
      "stateMutability": "view",
      "type": "function"
    },
    {
      "constant": true,
      "inputs": [
        {
          "name": "",
          "type": "address"
        }
      ],
      "name": "voters",
      "outputs": [
        {
          "name": "weight",
          "type": "uint256"
        },
        {
          "name": "voted",
          "type": "bool"
        },
        {
          "name": "delegate",
          "type": "address"
        },
        {
          "name": "vote",
          "type": "uint256"
        }
      ],
      "payable": false,
      "stateMutability": "view",
      "type": "function"
    },
    {
      "constant": true,
      "inputs": [],
      "name": "admin",
      "outputs": [
        {
          "name": "",
          "type": "address"
        }
      ],
      "payable": false,
      "stateMutability": "view",
      "type": "function"
    },
    {
      "inputs": [
        {
          "name": "candidateNames",
          "type": "bytes32[]"
        }
      ],
      "payable": false,
      "stateMutability": "nonpayable",
      "type": "constructor"
    },
    {
      "constant": false,
      "inputs": [
        {
          "name": "voter",
          "type": "address"
        }
      ],
      "name": "giveRightToVote",
      "outputs": [],
      "payable": false,
      "stateMutability": "nonpayable",
      "type": "function"
    },
    {
      "constant": false,
      "inputs": [
        {
          "name": "candidate",
          "type": "uint256"
        }
      ],
      "name": "vote",
      "outputs": [],
      "payable": false,
      "stateMutability": "nonpayable",
      "type": "function"
    },
    {
      "constant": true,
      "inputs": [],
      "name": "winningCandidate",
      "outputs": [
        {
          "name": "winningCandidate_",
          "type": "uint256"
        }
      ],
      "payable": false,
      "stateMutability": "view",
      "type": "function"
    },
    {
      "constant": true,
      "inputs": [],
      "name": "winnerName",
      "outputs": [
        {
          "name": "winnerName_",
          "type": "bytes32"
        }
      ],
      "payable": false,
      "stateMutability": "view",
      "type": "function"
    }
  ],
  "bytecode": "0x608060405234801561001057600080fd5b5060405161096b38038061096b8339810180604052602081101561003357600080fd5b81019080805164010000000081111561004b57600080fd5b8281019050602081018481111561006157600080fd5b815185602082028301116401000000008211171561007e57600080fd5b5050929190505050336000806101000a81548173ffffffffffffffffffffffffffffffffffffffff021916908373ffffffffffffffffffffffffffffffffffffffff16021790555060018060008060009054906101000a900473ffffffffffffffffffffffffffffffffffffffff1673ffffffffffffffffffffffffffffffffffffffff1673ffffffffffffffffffffffffffffffffffffffff1681526020019081526020016000206000018190555060008090505b81518110156101b7576002604051806040016040528084848151811061015657fe5b6020026020010151815260200160008152509080600181540180825580915050906001820390600052602060002090600202016000909192909190915060008201518160000155602082015181600101555050508080600101915050610134565b50506107a3806101c86000396000f3fe608060405234801561001057600080fd5b506004361061007d5760003560e01c8063a3ec138d1161005b578063a3ec138d1461013d578063d28178d7146101da578063e2ba53f0146101f8578063f851a440146102165761007d565b80630121b93f146100825780633477ee2e146100b05780639e7b8d61146100f9575b600080fd5b6100ae6004803603602081101561009857600080fd5b8101908080359060200190929190505050610260565b005b6100dc600480360360208110156100c657600080fd5b81019080803590602001909291905050506103fd565b604051808381526020018281526020019250505060405180910390f35b61013b6004803603602081101561010f57600080fd5b81019080803573ffffffffffffffffffffffffffffffffffffffff16906020019092919050505061042e565b005b61017f6004803603602081101561015357600080fd5b81019080803573ffffffffffffffffffffffffffffffffffffffff16906020019092919050505061062f565b60405180858152602001841515151581526020018373ffffffffffffffffffffffffffffffffffffffff1673ffffffffffffffffffffffffffffffffffffffff16815260200182815260200194505050505060405180910390f35b6101e261068c565b6040518082815260200191505060405180910390f35b610200610703565b6040518082815260200191505060405180910390f35b61021e610730565b604051808273ffffffffffffffffffffffffffffffffffffffff1673ffffffffffffffffffffffffffffffffffffffff16815260200191505060405180910390f35b6000600160003373ffffffffffffffffffffffffffffffffffffffff1673ffffffffffffffffffffffffffffffffffffffff168152602001908152602001600020905060008160000154141561031e576040517f08c379a00000000000000000000000000000000000000000000000000000000081526004018080602001828103825260148152602001807f486173206e6f20726967687420746f20766f746500000000000000000000000081525060200191505060405180910390fd5b8060010160009054906101000a900460ff16156103a3576040517f08c379a000000000000000000000000000000000000000000000000000000000815260040180806020018281038252600e8152602001807f416c726561647920766f7465642e00000000000000000000000000000000000081525060200191505060405180910390fd5b60018160010160006101000a81548160ff0219169083151502179055508181600201819055508060000154600283815481106103db57fe5b9060005260206000209060020201600101600082825401925050819055505050565b6002818154811061040a57fe5b90600052602060002090600202016000915090508060000154908060010154905082565b6000809054906101000a900473ffffffffffffffffffffffffffffffffffffffff1673ffffffffffffffffffffffffffffffffffffffff163373ffffffffffffffffffffffffffffffffffffffff16146104d3576040517f08c379a00000000000000000000000000000000000000000000000000000000081526004018080602001828103825260228152602001806107566022913960400191505060405180910390fd5b600160008273ffffffffffffffffffffffffffffffffffffffff1673ffffffffffffffffffffffffffffffffffffffff16815260200190815260200160002060010160009054906101000a900460ff1615610596576040517f08c379a00000000000000000000000000000000000000000000000000000000081526004018080602001828103825260188152602001807f54686520766f74657220616c726561647920766f7465642e000000000000000081525060200191505060405180910390fd5b6000600160008373ffffffffffffffffffffffffffffffffffffffff1673ffffffffffffffffffffffffffffffffffffffff16815260200190815260200160002060000154146105e557600080fd5b60018060008373ffffffffffffffffffffffffffffffffffffffff1673ffffffffffffffffffffffffffffffffffffffff1681526020019081526020016000206000018190555050565b60016020528060005260406000206000915090508060000154908060010160009054906101000a900460ff16908060010160019054906101000a900473ffffffffffffffffffffffffffffffffffffffff16908060020154905084565b6000806000905060008090505b6002805490508110156106fe5781600282815481106106b457fe5b90600052602060002090600202016001015411156106f157600281815481106106d957fe5b90600052602060002090600202016001015491508092505b8080600101915050610699565b505090565b6000600261070f61068c565b8154811061071957fe5b906000526020600020906002020160000154905090565b6000809054906101000a900473ffffffffffffffffffffffffffffffffffffffff168156fe4f6e6c792061646d696e2063616e206769766520726967687420746f20766f74652ea165627a7a72305820c11fdc81f9a80f3a9591f9676ca7cfeb9e0b5d364317ba4b4992e4e3d9cc70ad0029",
  "source": "pragma solidity >=0.4.22 <0.6.0;\r\n\r\n/// @title Voting with delegation.\r\ncontract Ballot {\r\n    // This declares a new complex type which will\r\n    // be used for variables later.\r\n    // It will represent a single voter.\r\n    struct Voter {\r\n        uint weight; // weight is accumulated by delegation\r\n        bool voted;  // if true, that person already voted\r\n        address delegate; // person delegated to\r\n        uint vote;   // index of the voted Candidate\r\n    }\r\n\r\n    // This is a type for a single Candidate.\r\n    struct Candidate {\r\n        bytes32 name;   // short name (up to 32 bytes)\r\n        uint voteCount; // number of accumulated votes\r\n    }\r\n\r\n    address public admin;\r\n\r\n    // This declares a state variable that\r\n    // stores a `Voter` struct for each possible address.\r\n    mapping(address => Voter) public voters;\r\n\r\n    // A dynamically-sized array of `Candidate` structs.\r\n    Candidate[] public candidates;\r\n\r\n    /// Create a new ballot to choose one of `CandidateNames`.\r\n    constructor(bytes32[] memory candidateNames) public {\r\n        admin = msg.sender;\r\n        voters[admin].weight = 1;\r\n\r\n        // For each of the provided Candidate names,\r\n        // create a new Candidate object and add it\r\n        // to the end of the array.\r\n        for (uint i = 0; i < candidateNames.length; i++) {\r\n            // `Candidate({...})` creates a temporary\r\n            // Candidate object and `Candidates.push(...)`\r\n            // appends it to the end of `Candidates`.\r\n            candidates.push(Candidate({\r\n                name: candidateNames[i],\r\n                voteCount: 0\r\n            }));\r\n        }\r\n    }\r\n\r\n    // Give `voter` the right to vote on this ballot.\r\n    // May only be called by `admin`.\r\n    function giveRightToVote(address voter) public {\r\n        // If the first argument of `require` evaluates\r\n        // to `false`, execution terminates and all\r\n        // changes to the state and to Ether balances\r\n        // are reverted.\r\n        // This used to consume all gas in old EVM versions, but\r\n        // not anymore.\r\n        // It is often a good idea to use `require` to check if\r\n        // functions are called correctly.\r\n        // As a second argument, you can also provide an\r\n        // explanation about what went wrong.\r\n        require(\r\n            msg.sender == admin,\r\n            \"Only admin can give right to vote.\"\r\n        );\r\n        require(\r\n            !voters[voter].voted,\r\n            \"The voter already voted.\"\r\n        );\r\n        require(voters[voter].weight == 0);\r\n        voters[voter].weight = 1;\r\n    }\r\n    /// Give your vote (including votes delegated to you)\r\n    /// to Candidate `candidates[candidate].name`.\r\n    function vote(uint candidate) public {\r\n        Voter storage sender = voters[msg.sender];\r\n        require(sender.weight != 0, \"Has no right to vote\");\r\n        require(!sender.voted, \"Already voted.\");\r\n        sender.voted = true;\r\n        sender.vote = candidate;\r\n\r\n        // If `Candidate` is out of the range of the array,\r\n        // this will throw automatically and revert all\r\n        // changes.\r\n        candidates[candidate].voteCount += sender.weight;\r\n    }\r\n\r\n    /// @dev Computes the winning Candidate taking all\r\n    /// previous votes into account.\r\n    function winningCandidate() public view\r\n            returns (uint winningCandidate_)\r\n    {\r\n        uint winningVoteCount = 0;\r\n        for (uint p = 0; p < candidates.length; p++) {\r\n            if (candidates[p].voteCount > winningVoteCount) {\r\n                winningVoteCount = candidates[p].voteCount;\r\n                winningCandidate_ = p;\r\n            }\r\n        }\r\n    }\r\n\r\n    // Calls winningCandidate() function to get the index\r\n    // of the winner contained in the Candidates array and then\r\n    // returns the name of the winner\r\n    function winnerName() public view\r\n            returns (bytes32 winnerName_)\r\n    {\r\n        winnerName_ = candidates[winningCandidate()].name;\r\n    }\r\n}\r\n",
  "sourcePath": "C:/Users/Akshay/Team_450/contracts/Ballot.sol",
  "compiler": {
    "name": "solc",
    "version": "0.5.8+commit.23d335f2.Emscripten.clang"
  },
  "schemaVersion": "3.0.11",
  "updatedAt": "2019-08-15T15:32:50.378Z",
  "devdoc": {
    "methods": {},
    "title": "Voting with delegation."
  },
  "userdoc": {
    "methods": {
      "constructor": "Create a new ballot to choose one of `CandidateNames`.",
      "vote(uint256)": {
        "notice": "to Candidate `candidates[candidate].name`."
      },
      "winningCandidate()": {
        "notice": "previous votes into account."
      }
    }
  }
}