{
  "contractName": "Election",
  "abi": [
    {
      "constant": true,
      "inputs": [
        {
          "name": "",
          "type": "uint256"
        }
      ],
      "name": "Candidates",
      "outputs": [
        {
          "name": "name",
          "type": "bytes32"
        },
        {
          "name": "voteCount",
          "type": "uint256"
        },
        {
          "name": "party",
          "type": "bytes32"
        }
      ],
      "payable": false,
      "stateMutability": "view",
      "type": "function"
    },
    {
      "constant": true,
      "inputs": [
        {
          "name": "",
          "type": "address"
        }
      ],
      "name": "voters",
      "outputs": [
        {
          "name": "VoterID",
          "type": "address"
        },
        {
          "name": "vote",
          "type": "uint256"
        },
        {
          "name": "weight",
          "type": "uint256"
        },
        {
          "name": "voted",
          "type": "bool"
        }
      ],
      "payable": false,
      "stateMutability": "view",
      "type": "function"
    },
    {
      "constant": true,
      "inputs": [],
      "name": "admin",
      "outputs": [
        {
          "name": "",
          "type": "address"
        }
      ],
      "payable": false,
      "stateMutability": "view",
      "type": "function"
    },
    {
      "inputs": [
        {
          "name": "CandidateNames",
          "type": "bytes32[]"
        },
        {
          "name": "party",
          "type": "bytes32[]"
        }
      ],
      "payable": false,
      "stateMutability": "nonpayable",
      "type": "constructor"
    },
    {
      "constant": false,
      "inputs": [
        {
          "name": "voter",
          "type": "address"
        }
      ],
      "name": "giveRightToVote",
      "outputs": [],
      "payable": false,
      "stateMutability": "nonpayable",
      "type": "function"
    },
    {
      "constant": false,
      "inputs": [
        {
          "name": "candidate",
          "type": "uint256"
        }
      ],
      "name": "vote",
      "outputs": [],
      "payable": false,
      "stateMutability": "nonpayable",
      "type": "function"
    },
    {
      "constant": true,
      "inputs": [],
      "name": "winningCandidate",
      "outputs": [
        {
          "name": "winningCandidate_",
          "type": "uint256"
        }
      ],
      "payable": false,
      "stateMutability": "view",
      "type": "function"
    },
    {
      "constant": true,
      "inputs": [],
      "name": "winnerName",
      "outputs": [
        {
          "name": "winnerName_",
          "type": "bytes32"
        }
      ],
      "payable": false,
      "stateMutability": "view",
      "type": "function"
    },
    {
      "constant": true,
      "inputs": [],
      "name": "winningParty",
      "outputs": [
        {
          "name": "party_",
          "type": "bytes32"
        }
      ],
      "payable": false,
      "stateMutability": "view",
      "type": "function"
    }
  ],
  "bytecode": "0x608060405234801561001057600080fd5b50604051610a4c380380610a4c8339810180604052604081101561003357600080fd5b81019080805164010000000081111561004b57600080fd5b8281019050602081018481111561006157600080fd5b815185602082028301116401000000008211171561007e57600080fd5b5050929190602001805164010000000081111561009a57600080fd5b828101905060208101848111156100b057600080fd5b81518560208202830111640100000000821117156100cd57600080fd5b5050929190505050336000806101000a81548173ffffffffffffffffffffffffffffffffffffffff021916908373ffffffffffffffffffffffffffffffffffffffff160217905550600060018060008060009054906101000a900473ffffffffffffffffffffffffffffffffffffffff1673ffffffffffffffffffffffffffffffffffffffff1673ffffffffffffffffffffffffffffffffffffffff168152602001908152602001600020600201819055505b825181101561022657600260405180606001604052808584815181106101a257fe5b60200260200101518152602001600081526020018484815181106101c257fe5b6020026020010151815250908060018154018082558091505090600182039060005260206000209060030201600090919290919091506000820151816000015560208201518160010155604082015181600201555050508080600101915050610180565b505050610814806102386000396000f3fe608060405234801561001057600080fd5b50600436106100885760003560e01c8063ae315fe41161005b578063ae315fe4146101ec578063d28178d71461020a578063e2ba53f014610228578063f851a4401461024657610088565b80630121b93f1461008d578063290e9212146100bb5780639e7b8d611461010b578063a3ec138d1461014f575b600080fd5b6100b9600480360360208110156100a357600080fd5b8101908080359060200190929190505050610290565b005b6100e7600480360360208110156100d157600080fd5b810190808035906020019092919050505061042d565b60405180848152602001838152602001828152602001935050505060405180910390f35b61014d6004803603602081101561012157600080fd5b81019080803573ffffffffffffffffffffffffffffffffffffffff169060200190929190505050610464565b005b6101916004803603602081101561016557600080fd5b81019080803573ffffffffffffffffffffffffffffffffffffffff169060200190929190505050610665565b604051808573ffffffffffffffffffffffffffffffffffffffff1673ffffffffffffffffffffffffffffffffffffffff1681526020018481526020018381526020018215151515815260200194505050505060405180910390f35b6101f46106c2565b6040518082815260200191505060405180910390f35b6102126106ef565b6040518082815260200191505060405180910390f35b610230610774565b6040518082815260200191505060405180910390f35b61024e6107a1565b604051808273ffffffffffffffffffffffffffffffffffffffff1673ffffffffffffffffffffffffffffffffffffffff16815260200191505060405180910390f35b6000600160003373ffffffffffffffffffffffffffffffffffffffff1673ffffffffffffffffffffffffffffffffffffffff168152602001908152602001600020905060008160020154141561034e576040517f08c379a000000000000000000000000000000000000000000000000000000000815260040180806020018281038252601c8152602001807f446f6573206e6f74206861766520726967687420746f20766f74652e0000000081525060200191505060405180910390fd5b8060030160009054906101000a900460ff16156103d3576040517f08c379a00000000000000000000000000000000000000000000000000000000081526004018080602001828103825260178152602001807f596f75206861766520616c726561647920766f7465642e00000000000000000081525060200191505060405180910390fd5b60018160030160006101000a81548160ff02191690831515021790555081816001018190555080600201546002838154811061040b57fe5b9060005260206000209060030201600101600082825401925050819055505050565b6002818154811061043a57fe5b90600052602060002090600302016000915090508060000154908060010154908060020154905083565b600160008273ffffffffffffffffffffffffffffffffffffffff1673ffffffffffffffffffffffffffffffffffffffff16815260200190815260200160002060030160009054906101000a900460ff1615610527576040517f08c379a00000000000000000000000000000000000000000000000000000000081526004018080602001828103825260188152602001807f54686520766f74657220616c726561647920766f7465642e000000000000000081525060200191505060405180910390fd5b6000809054906101000a900473ffffffffffffffffffffffffffffffffffffffff1673ffffffffffffffffffffffffffffffffffffffff163373ffffffffffffffffffffffffffffffffffffffff16146105cc576040517f08c379a00000000000000000000000000000000000000000000000000000000081526004018080602001828103825260228152602001806107c76022913960400191505060405180910390fd5b6000600160008373ffffffffffffffffffffffffffffffffffffffff1673ffffffffffffffffffffffffffffffffffffffff168152602001908152602001600020600201541461061b57600080fd5b60018060008373ffffffffffffffffffffffffffffffffffffffff1673ffffffffffffffffffffffffffffffffffffffff1681526020019081526020016000206002018190555050565b60016020528060005260406000206000915090508060000160009054906101000a900473ffffffffffffffffffffffffffffffffffffffff16908060010154908060020154908060030160009054906101000a900460ff16905084565b600060026106ce6106ef565b815481106106d857fe5b906000526020600020906003020160020154905090565b600080600090506000809050600091505b60028054905082101561076f57806002838154811061071b57fe5b906000526020600020906003020160010154111561075c576002828154811061074057fe5b9060005260206000209060030201600101549050819250610761565b610762565b5b8180600101925050610700565b505090565b600060026107806106ef565b8154811061078a57fe5b906000526020600020906003020160000154905090565b6000809054906101000a900473ffffffffffffffffffffffffffffffffffffffff168156fe4f6e6c792061646d696e2063616e206769766520726967687420746f20766f74652ea165627a7a723058200e37903bb5cbbde6b9ac8f237018af229daf525770f3b49a32629c5a895ad38d0029",
  "source": "pragma solidity >=0.4.17;\r\n\r\n\r\ncontract Election {\r\n    // Representation of a single voter.\r\n    struct Voter {\r\n        address VoterID; // person VoterID \r\n        uint vote;   // stores the index of the voted Candidate\r\n        uint weight; //always fixed at 1(number of votes a person can give)\r\n        bool voted;  // if true, that person already voted\r\n    }\r\n\r\n    // This is a type for a single Candidate.\r\n    struct Candidate {\r\n        bytes32 name;   // short name (up to 32 bytes)\r\n        uint voteCount; // number of accumulated votes\r\n        bytes32 party;\r\n    }\r\n\r\n    address public admin;\r\n    // State variable that stores a `Voter` struct for each possible address.\r\n    mapping(address => Voter) public voters; \r\n//address corresponding to VoterID. Since it is unique and sensitive we store it in the blockchain \r\n\r\n    // A dynamically-sized array of 'Candidates'.\r\n    Candidate[] public Candidates;\r\n\r\n    /* Pass a pair of lists consisting of party and the name of the candidates at positions i*/\r\n    constructor(bytes32[] memory CandidateNames,bytes32[] memory party) public {\r\n        admin = msg.sender;\r\n        uint i;\r\n        voters[admin].weight = 1;\r\n        while(i < CandidateNames.length){\r\n            Candidates.push(Candidate({\r\n                name: CandidateNames[i],\r\n                voteCount: 0,\r\n                party:party[i]\r\n            }));\r\n             i++;\r\n        }\r\n    }\r\n\r\n    // Give 'voter' the right to vote on the Election.(Must only be called by 'admin'.)\r\n    function giveRightToVote(address voter) public {\r\n        require(\r\n            !voters[voter].voted,\r\n            \"The voter already voted.\"\r\n        );\r\n        require(\r\n            msg.sender == admin,\r\n            \"Only admin can give right to vote.\"\r\n        );\r\n\r\n        require(voters[voter].weight == 0);\r\n        voters[voter].weight = 1;\r\n    }\r\n\r\n    /// Give your vote (including votes VoterIDd to you) to Candidate 'Candidates[Candidate].name'.\r\n    function vote(uint candidate) public {\r\n        Voter storage sender = voters[msg.sender];\r\n        require(sender.weight != 0, \"Does not have right to vote.\");\r\n        require(!sender.voted, \"You have already voted.\");\r\n        sender.voted = true;\r\n        sender.vote = candidate;\r\n        Candidates[candidate].voteCount += sender.weight;//always 1\r\n    }\r\n\r\n//finds the winning candidate\r\n    function winningCandidate() public view\r\n            returns (uint winningCandidate_)\r\n    {\r\n        uint p = 0;\r\n        uint winningVoteCount = 0;\r\n        for (p = 0; p < Candidates.length; p++) {\r\n            if (Candidates[p].voteCount > winningVoteCount) {\r\n                winningVoteCount = Candidates[p].voteCount;\r\n                winningCandidate_ = p;\r\n            }\r\n            else{\r\n                continue;\r\n            }\r\n        }\r\n    }\r\n    \r\n\r\n    // returns the name of the winner\r\n    function winnerName() public view\r\n            returns (bytes32 winnerName_)\r\n    {\r\n        winnerName_ = Candidates[winningCandidate()].name;\r\n    }\r\n    //returns winner's party\r\n    function winningParty() public view\r\n            returns (bytes32 party_)\r\n    {\r\n        party_ = Candidates[winningCandidate()].party;\r\n    }\r\n}\r\n",
  "sourcePath": "C:/Users/Akshay/Team_450/contracts/Election.sol",
  "compiler": {
    "name": "solc",
    "version": "0.5.8+commit.23d335f2.Emscripten.clang"
  },
  "schemaVersion": "3.0.11",
  "updatedAt": "2019-08-15T09:03:51.159Z",
  "devdoc": {
    "methods": {}
  },
  "userdoc": {
    "methods": {
      "vote(uint256)": {
        "notice": "Give your vote (including votes VoterIDd to you) to Candidate 'Candidates[Candidate].name'."
      }
    }
  }
}